:020000040800F2
:10000000000C002029040008AD040008AD0400081D
:10001000AD040008AD040008AD04000800000000B5
:10002000000000000000000000000000AD04000817
:10003000AD04000800000000AD040008AD04000895
:10004000AD040008AD040008AD040008AD040008CC
:10005000AD040008AD040008AD040008AD040008BC
:10006000AD040008AD040008AD040008AD040008AC
:10007000AD040008AD040008AD040008AD0400089C
:10008000AD040008AD040008AD040008AD0400088C
:10009000AD040008AD040008AD040008AD0400087C
:1000A000AD040008AD040008AD040008AD0400086C
:1000B000AD040008AD040008AD040008AD0400085C
:1000C000AD040008AD040008AD040008AD0400084C
:1000D000AD040008AD040008AD040008AD0400083C
:1000E000AD040008AD040008AD040008AD0400082C
:1000F000AD040008AD040008AD040008AD0400081C
:10010000AD040008AD040008AD040008AD0400080B
:10011000AD040008AD040008AD040008AD040008FB
:10012000AD040008AD040008AD040008AD040008EB
:10013000AD0400080000000000000000AD0400084D
:10014000AD040008AD040008AD040008AD040008CB
:10015000AD040008AD040008AD040008AD040008BB
:10016000AD040008AD040008AD040008AD040008AB
:10017000AD040008AD040008AD0400080000000054
:1001800000000000AD0400080000000000000000B6
:10019000AD0400080000000000000000AD040008ED
:1001A000000000000000000000000000AD04000896
:1001B000AD040008AD040008AD040008AD0400085B
:0401C000AD04000882
:1001C40080B483B000AF0346FB7100BFFDE70000BD
:1001D40080B582B000AF104800F072F80346FB719E
:1001E40097F90730002B04D097F907301846FFF72A
:1001F400E7FF0121084800F0DFF80346FB7197F997
:100204000730002B05D097F907301846FFF7D8FFC1
:1002140000BF00BFFDE700BFB404000880B483B092
:1002240000AF78607B68002B03D07B681B68002BD1
:1002340002D14FF0FF331AE07B681B7A0F2B02D9EF
:100244006FF0010313E07B685B7A032B0BD87B68A8
:100254009B7A012B07D87B68DB7A032B03D87B6856
:100264001B7B022B02D96FF0020300E00023184627
:100274000C37BD465DF8047B704780B487B000AF8F
:10028400F8607A603B600B46FB72FB7A5B007B6133
:10029400FB681A6879687B6901FA03F3DB431A4047
:1002A40039687B6819407B6901FA03F31A43FB68D8
:1002B4001A6000BF1C37BD465DF8047B7047000020
:1002C40080B588B000AF78607868FFF7A7FF034671
:1002D400FB7797F91F30002B02D097F91F3064E0A9
:1002E400344B1A687B685B68324913430B607B6844
:1002F4005B7A012B17D17B681B681833BB617B6861
:100304005B7B012B08D17B681B7A1A46012303FA15
:1003140002F2BB691A6006E07B681B7A1033012283
:100324009A40BB691A607B681B6804337B617B68F5
:100334009B7A012B0AD17B691A687B681B7A194660
:1003440001238B401A437B691A600AE07B691A68AF
:100354007B681B7A194601238B40DB431A407B6977
:100364001A607B681B6808333B617B68197A7B6879
:10037400DB7A03223869FFF780FF7B681B680C3344
:10038400FB607B68197A7B681B7B0322F868FFF7A4
:1003940074FF7B681B68BB607B68197A7B685B7A37
:1003A4000322B868FFF769FF002318462037BD46CB
:1003B40080BD00BF3038024080B584B000AF7860A3
:1003C4000B46FB707868FFF729FF0346FB7397F928
:1003D4000F30002B02D097F90F3017E07B681B68B1
:1003E4001833BB60FB78012B08D17B681B7A1A4653
:1003F400012303FA02F2BB681A6006E07B681B7AE9
:10040400103301229A40BB681A6000231846103743
:10041400BD4680BD80B400AF00BFBD465DF8047B1F
:100424007047000080B588B000AF1A4A1A4BD31A3F
:100434007B611A4B3B61184BFB600023FB610AE0B4
:100444003A69FB691A44F968FB690B4412781A701B
:10045400FB690133FB61FA697B699A42F0D3104A64
:10046400104BD31ABB600F4B7B600023BB6107E0CA
:100474007A68BB69134400221A70BB690133BB61FB
:10048400BA69BB689A42F3D3FFF7C4FFFFF7A0FE33
:1004940000F00AF80000002000000020B404000866
:1004A400000000200000002080B400AF00BFFDE782
:1004B40000000240010000000501000000000000EF
:0400000508000429C2
:00000001FF
