:020000040800F2
:10000000080C00203D080008C1080008C1080008CD
:10001000C1080008C1080008C1080008000000006D
:10002000000000000000000000000000C1080008FF
:10003000C108000800000000C10800081D050008F4
:10004000C1080008C1080008C1080008C10800086C
:10005000C1080008C1080008C1080008C10800085C
:10006000C1080008C1080008C1080008C10800084C
:10007000C1080008C1080008C1080008C10800083C
:10008000C1080008C1080008C1080008C10800082C
:10009000C1080008C1080008C1080008C10800081C
:1000A000C1080008C1080008C1080008C10800080C
:1000B000C1080008C1080008C1080008C1080008FC
:1000C000C1080008C1080008C1080008C1080008EC
:1000D000C1080008C1080008C1080008C1080008DC
:1000E000C1080008C1080008C1080008C1080008CC
:1000F000C1080008C1080008C1080008C1080008BC
:10010000C1080008C1080008C1080008C1080008AB
:10011000C1080008C1080008C1080008C10800089B
:10012000C1080008C1080008C1080008C10800088B
:10013000C10800080000000000000000C10800081D
:10014000C1080008C1080008C1080008C10800086B
:10015000C1080008C1080008C1080008C10800085B
:10016000C1080008C1080008C1080008C10800084B
:10017000C1080008C1080008C1080008000000000C
:1001800000000000C108000800000000000000009E
:10019000C10800080000000000000000C1080008BD
:1001A000000000000000000000000000C10800087E
:1001B000C1080008C1080008C1080008C1080008FB
:0401C000C10800086A
:1001C40080B400AF00BFFDE780B500AF1C4800F06D
:1001D40061F91C4800F0D4F80346002B01D0FFF766
:1001E400EFFF194800F0CCF80346002B01D0FFF7CD
:1001F400E7FF164800F0E8F90346002B01D0FFF7AB
:10020400DFFF1349114800F0E9FA12490F4800F0E2
:10021400E5FA11490D4800F0E1FA10490B4800F0E5
:10022400DDFA0C49094800F0D9FA0D49074800F0F5
:10023400D5FA4FF47A7000F055F900BFF5E700BF26
:100244000024F40048090008580900086809000857
:10025400C8080008CC080008F408000810090008C1
:100264003409000880B483B000AF78607B68002B49
:1002740003D07B681B68002B02D14FF0FF3325E0CD
:100284007B681B7A0F2B02D96FF001031EE07B6899
:100294005B7A032B0BD87B689B7A012B07D87B688E
:1002A400DB7A032B03D87B681B7B022B02D96FF00C
:1002B40002030BE07B685B7A022B06D17B685B7BD5
:1002C4000F2B02D96FF0020300E0002318460C370D
:1002D400BD465DF8047B704780B487B000AFF8601A
:1002E4007A603B600B46FB72FB7A5B007B61FB68C8
:1002F4001A6879687B6901FA03F3DB431A403968A9
:100304007B6819407B6901FA03F31A43FB681A609E
:1003140000BF1C37BD465DF8047B704780B487B0CE
:1003240000AF78600B46FB701346BB70FB78072B5D
:1003340001D8202300E024237B61FB7803F007032A
:100344003B613B699B00FB607A687B691344BB603B
:10035400BB681A680F21FB6801FA03F3DB431A40F8
:10036400BB7803F00F01FB6801FA03F31A43BB687F
:100374001A6000BF1C37BD465DF8047B704700005F
:1003840080B588B000AF78607868FFF76BFF0346EC
:10039400FB7797F91F30002B02D097F91F3073E0D9
:1003A4003B4B1A687B685B68394913430B60384BD5
:1003B4001B687B685B7A012B17D17B681B68183339
:1003C400BB617B689B7B012B08D17B681B7A1A4637
:1003D400012303FA02F2BB691A6006E07B681B7A08
:1003E400103301229A40BB691A607B681B6804338E
:1003F4007B617B689B7A012B0AD17B691A687B68D5
:100404001B7A194601238B401A437B691A600AE060
:100414007B691A687B681B7A194601238B40DB438E
:100424001A407B691A607B681B6808333B617B68F0
:10043400197A7B68DB7A03223869FFF74DFF7B6802
:100444001B680C33FB607B68197A7B681B7B032277
:10045400F868FFF741FF7B685B7A022B08D17B6861
:1004640018687B68197A7B685B7B1A46FFF756FF2E
:100474007B681B68BB607B68197A7B685B7A0322A4
:10048400B868FFF729FF002318462037BD4680BD12
:100494003038024080B485B000AF78607B680D4A84
:1004A400A2FB03239B09013BFB600B4B00221A6058
:1004B4000A4AFB6823F07F431360094B00221A6049
:1004C400054B07221A6000BF1437BD465DF8047B54
:1004D400704700BFD34D621010E000E014E000E06C
:1004E40018E000E080B485B000AF7860094B1B6869
:1004F400FB60084B1A68FB68D31ABB60BA687B6858
:100504009A42F6D300BF00BF1437BD465DF8047BA2
:10051400704700BF0000002080B400AF044B1B688C
:100524000133034A136000BFBD465DF8047B704786
:100534000000002080B483B000AF78607B68002B9B
:1005440007D07B681B68002B03D07B685B68002B9B
:1005540002D14FF0FF3323E07B681B69002B02D1EB
:100564006FF001031CE07B681B7D012B02D96FF047
:10057400020315E07B685B7D012B02D96FF0030356
:100584000EE07B689B7D022B02D96FF0040307E029
:100594007B68DB7D022B02D96FF0050300E00023AA
:1005A40018460C37BD465DF8047B704780B483B0B1
:1005B40000AF786039607A683B68134418460C379A
:1005C400BD465DF8047B7047B0B586B000AF786077
:1005D4007868FFF7AFFF0346FB7297F90B30002BE7
:1005E40002D097F90B30B8E07B685B6819687B68C8
:1005F4009A687B685B680A431A607B685B681B685F
:100604007B681B680C211846FFF7D0FF03461A6865
:1006140022F400521A607B68DD687B681C697B6881
:100624001B6808211846FFF7C1FF0246B5FBF4F327
:1006340013607B681B6810211846FFF7B7FF034659
:100644001B687B617B6923F440537B617B685B7D22
:10065400012B03D17B6943F400537B617B681B68E6
:1006640010211846FFF7A2FF02467B6913607B68DE
:100674001B6814211846FFF799FF03461B683B616A
:100684003B6923F440733B617B681B7E012B03D0E1
:100694007B681B7E032B03D13B6943F480733B616E
:1006A4007B681B7E022B03D07B681B7E032B03D14C
:1006B4003B6943F400733B617B681B681421184653
:1006C400FFF774FF02463B6913600023FB607B68FD
:1006D4001B7D012B03D1FB6843F48053FB607B68D3
:1006E4009B7D012B04D1FB6843F48063FB6007E02E
:1006F4007B689B7D022B03D1FB6843F4C063FB60E2
:100704007B68DB7D002B03D07B68DB7D022B03D170
:10071400FB6843F00803FB607B68DB7D012B03D09F
:100724007B68DB7D022B03D1FB6843F00403FB6091
:100734007B681B680C211846FFF738FF0246FB68EC
:1007440013607B681B680C211846FFF72FFF0346D4
:100754001A6842F400521A60002318461837BD463E
:10076400B0BD000080B586B000AF78600B46FB706A
:100774007868FFF7DFFE0346FB7497F91330002B0C
:1007840002D097F9133023E07B681B6800211846D8
:10079400FFF70CFFF8607B681B6804211846FFF71D
:1007A40005FFB8600C4B7B6108E07B69013B7B6112
:1007B4007B69002B02D16FF0060309E0FB681B681C
:1007C40003F08003002BF0D0FA78BB681A60002392
:1007D40018461837BD4680BDA086010080B584B098
:1007E40000AF786039603B68002B14D14FF0FF33C1
:1007F40016E03B681B7819467868FFF7B3FF034699
:10080400FB7397F90F30002B02D097F90F3007E0F4
:100814003B6801333B603B681B78002BE9D1002324
:1008240018461037BD4680BD80B400AF00BFBD463A
:100834005DF8047B7047000080B588B000AF1A4AA9
:100844001A4BD31A7B611A4B3B61184BFB60002394
:10085400FB610AE03A69FB691A44F968FB690B44D5
:1008640012781A70FB690133FB61FA697B699A4259
:10087400F0D3104A104BD31ABB600F4B7B6000239C
:10088400BB6107E07A68BB69134400221A70BB6934
:100894000133BB61BA69BB689A42F3D3FFF7C4FF63
:1008A400FFF792FC00F00AF800000020000000208E
:1008B400C8080008040000200000002080B400AF35
:0408C40000BFFDE78D
:1008C8000D0A00003D3D3D3D3D3D3D3D3D3D3D3D2D
:1008D8003D3D3D3D3D3D3D3D3D3D3D3D3D3D3D3D40
:1008E8003D3D3D3D3D3D3D3D0D0A0000202053541A
:1008F8004D3332463478782055415254342044657B
:100908006D6F0D0A00000000202054583A50413005
:10091800202052583A504131202041463820203179
:10092800313532303020384E310D0A0048656C6C54
:100938006F2066726F6D205541525434210D0A00A4
:100948000000024001000000000200000108000051
:100958000000024001000000010200000108000040
:10096800004C004040380240000008000024F40019
:0C09780000C201000000000200000000AE
:040000050800083DAA
:00000001FF
